{
  "_format": "hh-sol-artifact-1",
  "contractName": "VotingSystem",
  "sourceName": "contracts/VotingSystem.sol",
  "abi": [
    {
      "inputs": [],
      "stateMutability": "nonpayable",
      "type": "constructor"
    },
    {
      "anonymous": false,
      "inputs": [
        {
          "indexed": false,
          "internalType": "uint256",
          "name": "pollId",
          "type": "uint256"
        },
        {
          "indexed": false,
          "internalType": "string",
          "name": "question",
          "type": "string"
        },
        {
          "indexed": false,
          "internalType": "string[]",
          "name": "options",
          "type": "string[]"
        }
      ],
      "name": "PollCreated",
      "type": "event"
    },
    {
      "anonymous": false,
      "inputs": [
        {
          "indexed": false,
          "internalType": "uint256",
          "name": "pollId",
          "type": "uint256"
        },
        {
          "indexed": false,
          "internalType": "uint256",
          "name": "optionId",
          "type": "uint256"
        },
        {
          "indexed": false,
          "internalType": "address",
          "name": "voter",
          "type": "address"
        }
      ],
      "name": "Voted",
      "type": "event"
    },
    {
      "inputs": [],
      "name": "admin",
      "outputs": [
        {
          "internalType": "address",
          "name": "",
          "type": "address"
        }
      ],
      "stateMutability": "view",
      "type": "function"
    },
    {
      "inputs": [
        {
          "internalType": "string",
          "name": "question",
          "type": "string"
        },
        {
          "internalType": "string[]",
          "name": "options",
          "type": "string[]"
        }
      ],
      "name": "createPoll",
      "outputs": [],
      "stateMutability": "nonpayable",
      "type": "function"
    },
    {
      "inputs": [
        {
          "internalType": "uint256",
          "name": "pollId",
          "type": "uint256"
        }
      ],
      "name": "endPoll",
      "outputs": [],
      "stateMutability": "nonpayable",
      "type": "function"
    },
    {
      "inputs": [
        {
          "internalType": "uint256",
          "name": "pollId",
          "type": "uint256"
        }
      ],
      "name": "getResults",
      "outputs": [
        {
          "internalType": "uint256[]",
          "name": "results",
          "type": "uint256[]"
        }
      ],
      "stateMutability": "view",
      "type": "function"
    },
    {
      "inputs": [
        {
          "internalType": "address",
          "name": "",
          "type": "address"
        },
        {
          "internalType": "uint256",
          "name": "",
          "type": "uint256"
        }
      ],
      "name": "hasVoted",
      "outputs": [
        {
          "internalType": "bool",
          "name": "",
          "type": "bool"
        }
      ],
      "stateMutability": "view",
      "type": "function"
    },
    {
      "inputs": [],
      "name": "pollCount",
      "outputs": [
        {
          "internalType": "uint256",
          "name": "",
          "type": "uint256"
        }
      ],
      "stateMutability": "view",
      "type": "function"
    },
    {
      "inputs": [
        {
          "internalType": "uint256",
          "name": "",
          "type": "uint256"
        }
      ],
      "name": "polls",
      "outputs": [
        {
          "internalType": "string",
          "name": "question",
          "type": "string"
        },
        {
          "internalType": "bool",
          "name": "active",
          "type": "bool"
        }
      ],
      "stateMutability": "view",
      "type": "function"
    },
    {
      "inputs": [
        {
          "internalType": "uint256",
          "name": "pollId",
          "type": "uint256"
        }
      ],
      "name": "viewPoll",
      "outputs": [
        {
          "internalType": "string",
          "name": "question",
          "type": "string"
        },
        {
          "internalType": "string[]",
          "name": "options",
          "type": "string[]"
        },
        {
          "internalType": "bool",
          "name": "active",
          "type": "bool"
        }
      ],
      "stateMutability": "view",
      "type": "function"
    },
    {
      "inputs": [
        {
          "internalType": "uint256",
          "name": "pollId",
          "type": "uint256"
        },
        {
          "internalType": "uint256",
          "name": "optionId",
          "type": "uint256"
        }
      ],
      "name": "vote",
      "outputs": [],
      "stateMutability": "nonpayable",
      "type": "function"
    }
  ],
  "bytecode": "0x608060405234801561001057600080fd5b50336000806101000a81548173ffffffffffffffffffffffffffffffffffffffff021916908373ffffffffffffffffffffffffffffffffffffffff1602179055506118bb806100606000396000f3fe608060405234801561001057600080fd5b50600436106100935760003560e01c8063ac2f007411610066578063ac2f007414610132578063b384abef14610163578063c8b61c751461017f578063f43b8778146101b1578063f851a440146101cd57610093565b806342545825146100985780637e3d71c3146100c857806381a60c0d146100e45780639207891d14610114575b600080fd5b6100b260048036038101906100ad9190610e24565b6101eb565b6040516100bf919061134d565b60405180910390f35b6100e260048036038101906100dd9190610e60565b61021a565b005b6100fe60048036038101906100f99190610ecc565b6103b5565b60405161010b919061132b565b60405180910390f35b61011c610512565b60405161012991906114bd565b60405180910390f35b61014c60048036038101906101479190610ecc565b610518565b60405161015a9291906113ad565b60405180910390f35b61017d60048036038101906101789190610ef5565b6105d1565b005b61019960048036038101906101949190610ecc565b61083a565b6040516101a893929190611368565b60405180910390f35b6101cb60048036038101906101c69190610ecc565b610a23565b005b6101d5610b80565b6040516101e29190611310565b60405180910390f35b60036020528160005260406000206020528060005260406000206000915091509054906101000a900460ff1681565b60008054906101000a900473ffffffffffffffffffffffffffffffffffffffff1673ffffffffffffffffffffffffffffffffffffffff163373ffffffffffffffffffffffffffffffffffffffff16146102a8576040517f08c379a000000000000000000000000000000000000000000000000000000000815260040161029f9061147d565b60405180910390fd5b60018151116102ec576040517f08c379a00000000000000000000000000000000000000000000000000000000081526004016102e3906113fd565b60405180910390fd5b6000600260006001600081548092919061030590611770565b919050558152602001908152602001600020905082816000019080519060200190610331929190610ba4565b508181600101908051906020019061034a929190610c2a565b5060018160030160006101000a81548160ff0219169083151502179055507f4be3f505bf50604bde92e6940e2df40c36f90cb362640413d520080ca12eabb2600180546103979190611680565b84846040516103a8939291906114d8565b60405180910390a1505050565b60608160015481106103fc576040517f08c379a00000000000000000000000000000000000000000000000000000000081526004016103f39061145d565b60405180910390fd5b60006002600085815260200190815260200160002090506000816001018054905090508067ffffffffffffffff81111561045f577f4e487b7100000000000000000000000000000000000000000000000000000000600052604160045260246000fd5b60405190808252806020026020018201604052801561048d5781602001602082028036833780820191505090505b50935060005b8181101561050957826002016000828152602001908152602001600020548582815181106104ea577f4e487b7100000000000000000000000000000000000000000000000000000000600052603260045260246000fd5b602002602001018181525050808061050190611770565b915050610493565b50505050919050565b60015481565b600260205280600052604060002060009150905080600001805461053b9061173e565b80601f01602080910402602001604051908101604052809291908181526020018280546105679061173e565b80156105b45780601f10610589576101008083540402835291602001916105b4565b820191906000526020600020905b81548152906001019060200180831161059757829003601f168201915b5050505050908060030160009054906101000a900460ff16905082565b816001548110610616576040517f08c379a000000000000000000000000000000000000000000000000000000000815260040161060d9061145d565b60405180910390fd5b60006002600085815260200190815260200160002090508060030160009054906101000a900460ff1661067e576040517f08c379a00000000000000000000000000000000000000000000000000000000081526004016106759061143d565b60405180910390fd5b806001018054905083106106c7576040517f08c379a00000000000000000000000000000000000000000000000000000000081526004016106be906113dd565b60405180910390fd5b600360003373ffffffffffffffffffffffffffffffffffffffff1673ffffffffffffffffffffffffffffffffffffffff168152602001908152602001600020600085815260200190815260200160002060009054906101000a900460ff1615610765576040517f08c379a000000000000000000000000000000000000000000000000000000000815260040161075c9061149d565b60405180910390fd5b806002016000848152602001908152602001600020600081548092919061078b90611770565b91905055506001600360003373ffffffffffffffffffffffffffffffffffffffff1673ffffffffffffffffffffffffffffffffffffffff168152602001908152602001600020600086815260200190815260200160002060006101000a81548160ff0219169083151502179055507fd91ecafccf238642dccd41161308b3eebe62a12bc5819daf5164780c221ec95b84843360405161082c9392919061151d565b60405180910390a150505050565b6060806000836001548110610884576040517f08c379a000000000000000000000000000000000000000000000000000000000815260040161087b9061145d565b60405180910390fd5b600060026000878152602001908152602001600020905080600001816001018260030160009054906101000a900460ff168280546108c19061173e565b80601f01602080910402602001604051908101604052809291908181526020018280546108ed9061173e565b801561093a5780601f1061090f5761010080835404028352916020019161093a565b820191906000526020600020905b81548152906001019060200180831161091d57829003601f168201915b5050505050925081805480602002602001604051908101604052809291908181526020016000905b82821015610a0e5783829060005260206000200180546109819061173e565b80601f01602080910402602001604051908101604052809291908181526020018280546109ad9061173e565b80156109fa5780601f106109cf576101008083540402835291602001916109fa565b820191906000526020600020905b8154815290600101906020018083116109dd57829003601f168201915b505050505081526020019060010190610962565b50505050915094509450945050509193909250565b60008054906101000a900473ffffffffffffffffffffffffffffffffffffffff1673ffffffffffffffffffffffffffffffffffffffff163373ffffffffffffffffffffffffffffffffffffffff1614610ab1576040517f08c379a0000000000000000000000000000000000000000000000000000000008152600401610aa89061147d565b60405180910390fd5b806001548110610af6576040517f08c379a0000000000000000000000000000000000000000000000000000000008152600401610aed9061145d565b60405180910390fd5b60006002600084815260200190815260200160002090508060030160009054906101000a900460ff16610b5e576040517f08c379a0000000000000000000000000000000000000000000000000000000008152600401610b559061141d565b60405180910390fd5b60008160030160006101000a81548160ff021916908315150217905550505050565b60008054906101000a900473ffffffffffffffffffffffffffffffffffffffff1681565b828054610bb09061173e565b90600052602060002090601f016020900481019282610bd25760008555610c19565b82601f10610beb57805160ff1916838001178555610c19565b82800160010185558215610c19579182015b82811115610c18578251825591602001919060010190610bfd565b5b509050610c269190610c8a565b5090565b828054828255906000526020600020908101928215610c79579160200282015b82811115610c78578251829080519060200190610c68929190610ba4565b5091602001919060010190610c4a565b5b509050610c869190610ca7565b5090565b5b80821115610ca3576000816000905550600101610c8b565b5090565b5b80821115610cc75760008181610cbe9190610ccb565b50600101610ca8565b5090565b508054610cd79061173e565b6000825580601f10610ce95750610d08565b601f016020900490600052602060002090810190610d079190610c8a565b5b50565b6000610d1e610d1984611585565b611554565b9050808382526020820190508260005b85811015610d5e5781358501610d448882610de5565b845260208401935060208301925050600181019050610d2e565b5050509392505050565b6000610d7b610d76846115b1565b611554565b905082815260208101848484011115610d9357600080fd5b610d9e8482856116fc565b509392505050565b600081359050610db581611857565b92915050565b600082601f830112610dcc57600080fd5b8135610ddc848260208601610d0b565b91505092915050565b600082601f830112610df657600080fd5b8135610e06848260208601610d68565b91505092915050565b600081359050610e1e8161186e565b92915050565b60008060408385031215610e3757600080fd5b6000610e4585828601610da6565b9250506020610e5685828601610e0f565b9150509250929050565b60008060408385031215610e7357600080fd5b600083013567ffffffffffffffff811115610e8d57600080fd5b610e9985828601610de5565b925050602083013567ffffffffffffffff811115610eb657600080fd5b610ec285828601610dbb565b9150509250929050565b600060208284031215610ede57600080fd5b6000610eec84828501610e0f565b91505092915050565b60008060408385031215610f0857600080fd5b6000610f1685828601610e0f565b9250506020610f2785828601610e0f565b9150509250929050565b6000610f3d838361104e565b905092915050565b6000610f5183836112f2565b60208301905092915050565b610f66816116b4565b82525050565b6000610f7782611601565b610f81818561163c565b935083602082028501610f93856115e1565b8060005b85811015610fcf5784840389528151610fb08582610f31565b9450610fbb83611622565b925060208a01995050600181019050610f97565b50829750879550505050505092915050565b6000610fec8261160c565b610ff6818561164d565b9350611001836115f1565b8060005b838110156110325781516110198882610f45565b97506110248361162f565b925050600181019050611005565b5085935050505092915050565b611048816116c6565b82525050565b600061105982611617565b611063818561165e565b935061107381856020860161170b565b61107c81611846565b840191505092915050565b600061109282611617565b61109c818561166f565b93506110ac81856020860161170b565b6110b581611846565b840191505092915050565b60006110cd600e8361166f565b91507f496e76616c6964206f7074696f6e0000000000000000000000000000000000006000830152602082019050919050565b600061110d60218361166f565b91507f4174206c656173742074776f206f7074696f6e7320617265207265717569726560008301527f64000000000000000000000000000000000000000000000000000000000000006020830152604082019050919050565b600061117360158361166f565b91507f506f6c6c20697320616c726561647920656e64656400000000000000000000006000830152602082019050919050565b60006111b360128361166f565b91507f506f6c6c206973206e6f742061637469766500000000000000000000000000006000830152602082019050919050565b60006111f360138361166f565b91507f506f6c6c20646f6573206e6f74206578697374000000000000000000000000006000830152602082019050919050565b600061123360228361166f565b91507f4f6e6c792061646d696e2063616e20706572666f726d2074686973206163746960008301527f6f6e0000000000000000000000000000000000000000000000000000000000006020830152604082019050919050565b600061129960238361166f565b91507f596f75206861766520616c726561647920766f74656420696e2074686973207060008301527f6f6c6c00000000000000000000000000000000000000000000000000000000006020830152604082019050919050565b6112fb816116f2565b82525050565b61130a816116f2565b82525050565b60006020820190506113256000830184610f5d565b92915050565b600060208201905081810360008301526113458184610fe1565b905092915050565b6000602082019050611362600083018461103f565b92915050565b600060608201905081810360008301526113828186611087565b905081810360208301526113968185610f6c565b90506113a5604083018461103f565b949350505050565b600060408201905081810360008301526113c78185611087565b90506113d6602083018461103f565b9392505050565b600060208201905081810360008301526113f6816110c0565b9050919050565b6000602082019050818103600083015261141681611100565b9050919050565b6000602082019050818103600083015261143681611166565b9050919050565b60006020820190508181036000830152611456816111a6565b9050919050565b60006020820190508181036000830152611476816111e6565b9050919050565b6000602082019050818103600083015261149681611226565b9050919050565b600060208201905081810360008301526114b68161128c565b9050919050565b60006020820190506114d26000830184611301565b92915050565b60006060820190506114ed6000830186611301565b81810360208301526114ff8185611087565b905081810360408301526115138184610f6c565b9050949350505050565b60006060820190506115326000830186611301565b61153f6020830185611301565b61154c6040830184610f5d565b949350505050565b6000604051905081810181811067ffffffffffffffff8211171561157b5761157a611817565b5b8060405250919050565b600067ffffffffffffffff8211156115a05761159f611817565b5b602082029050602081019050919050565b600067ffffffffffffffff8211156115cc576115cb611817565b5b601f19601f8301169050602081019050919050565b6000819050602082019050919050565b6000819050602082019050919050565b600081519050919050565b600081519050919050565b600081519050919050565b6000602082019050919050565b6000602082019050919050565b600082825260208201905092915050565b600082825260208201905092915050565b600082825260208201905092915050565b600082825260208201905092915050565b600061168b826116f2565b9150611696836116f2565b9250828210156116a9576116a86117b9565b5b828203905092915050565b60006116bf826116d2565b9050919050565b60008115159050919050565b600073ffffffffffffffffffffffffffffffffffffffff82169050919050565b6000819050919050565b82818337600083830152505050565b60005b8381101561172957808201518184015260208101905061170e565b83811115611738576000848401525b50505050565b6000600282049050600182168061175657607f821691505b6020821081141561176a576117696117e8565b5b50919050565b600061177b826116f2565b91507fffffffffffffffffffffffffffffffffffffffffffffffffffffffffffffffff8214156117ae576117ad6117b9565b5b600182019050919050565b7f4e487b7100000000000000000000000000000000000000000000000000000000600052601160045260246000fd5b7f4e487b7100000000000000000000000000000000000000000000000000000000600052602260045260246000fd5b7f4e487b7100000000000000000000000000000000000000000000000000000000600052604160045260246000fd5b6000601f19601f8301169050919050565b611860816116b4565b811461186b57600080fd5b50565b611877816116f2565b811461188257600080fd5b5056fea2646970667358221220a1ea5804f47a9c78e53bc07915072f1608b0640b20390e5531dcd0752270943864736f6c63430008000033",
  "linkReferences": {},
  "deployedLinkReferences": {}
}